:020000040800F2
:1000000090070020F1010008653300083519000849
:1000100061330008CB1500084739000800000000D4
:100020000000000000000000000000001135000882
:10003000CF15000800000000D9330008253600085D
:100040000B0200080B0200080B0200080B0200085C
:100050000B0200080B0200080B0200080B0200084C
:100060000B0200080B0200080B0200080B0200083C
:100070000B0200080B0200080B0200080B0200082C
:100080000B0200080B0200080B0200080B0200081C
:100090000B0200080B0200080B0200080B0200080C
:1000A0000B0200080B0200080B0200080B020008FC
:1000B0000B0200080B0200080B0200080B020008EC
:1000C0000B0200080B0200080B0200080B020008DC
:1000D0000B020008893600080B0200080B0200081A
:1000E0000B0200080B0200080B0200080B020008BC
:1000F0000B0200080B0200080B0200080B020008AC
:100100000B0200080B0200080B0200080B0200089B
:100110000B0200080B0200080B0200080B0200088B
:100120000B0200080B0200080B0200080B0200087B
:1001300000F002F800F04DF80AA090E8000C8244AC
:100140008344AAF10107DA4501D100F042F8AFF289
:10015000090EBAE80F0013F0010F18BFFB1A43F0A5
:10016000010318472061000040610000103A24BFDD
:1001700078C878C1FAD8520724BF30C830C144BF0C
:1001800004680C607047000000230024002500264E
:10019000103A28BF78C1FBD8520728BF30C148BFEA
:1001A0000B607047662904F02C84782900F0B28037
:1001B000732900F0FE83002070471FB500F010FC8B
:1001C00004000020002103F005FDE0601FBD10B514
:1001D00010BD00F009FD1146FFF7EFFF03F04EFCE4
:1001E00000F027FD03B4FFF7F2FF03BC03F0C8FBE8
:1001F0000948804709480047FEE7FEE7FEE7FEE7BB
:10020000FEE7FEE7FEE7FEE7FEE7FEE704480549F6
:10021000054A064B704700002936000831010008E6
:100220009001002090070020900300209003002000
:10023000704700000FB4044910B503AA029800F0FB
:10024000BDFB10BC5DF814FB3C0000200FB41CB5D6
:10025000074B06AA7B4469460090059800F07FFB97
:100260000020694600F08EFB1CBC5DF814FB00000A
:100270002D07000070B5044685690068C10601D5E8
:10028000302600E02026C00707D070BDD4E9012148
:1002900030469047206A401C20626D1EF6D570BD26
:1002A00070B5044685690078C00707D170BDD4E9F0
:1002B000012120209047206A401C20626D1EF6D547
:1002C00070BD70B50C460546012A05D02878800619
:1002D00000D5EA69002302E0012305E05B1C93429C
:1002E00002D2E05C0028F9D1A869E618C01AA8611A
:1002F000286A184428622846FFF7BCFF04E0D5E9C5
:10030000012114F8010B9047B442F8D32846FFF7B7
:10031000C7FF70BD70B504460D4621461068AFF3A7
:1003200000802188090502D50F4A7A4402E00E4A6E
:100330007A440E32002104F1240305E000F00F0698
:100340000009965D5E54491C0028F7D120780023EF
:10035000000704D5702D02D009B1022311322046C6
:10036000BDE8704000F08DB8985E00002DE9F047C0
:100370004FF0000A89460446C0F820A02046E168F4
:100380008847002876D0252806D0D4E90121904757
:10039000206A401C2062F1E7E1682046002588477A
:1003A000C4F81CA006460027C4F818A02A2E09D0BD
:1003B000304603F0DEFA38B304EB8708303EC8F865
:1003C000186019E059F8041B204604EB870291617C
:1003D000E1688847012F064618D1E069002820DA35
:1003E00025F020051DE0D8F8180000EB800006EB92
:1003F00040003038C8F818002046E16888470646B3
:1004000003F0B7FA0028EED1012F0AD02E2E08D122
:100410002046E16888477F1C0646022F45F02005EC
:10042000C4DBA069002803DA404245F00105A06161
:10043000E80701D025F01005B6B1A6F14100192852
:1004400002D8203645F400654A46314620462560EC
:100450004D46FFF7A7FE58B1012806D0ED1D25F047
:10046000070000F1080989E704E005F1040985E7C0
:1004700030468AE7206ABDE8F087704770477047CA
:1004800070472DE9F0470D4699469246044600F123
:1004900024080168880604D5E06921F01001216074
:1004A00000E00120A84201DD471B00E00027A16910
:1004B0007A1902EB0900081AA0612078C00602D45C
:1004C0002046FFF7D7FE002608E0D4E901211AF8FC
:1004D00006009047206A401C761C20624E45F4DBE3
:1004E0002078C0060AD52046FFF7C4FE06E0D4E90E
:1004F000012130209047206A401C2062381EA7F15D
:100500000107F4DC07E0D4E9012118F80500904761
:10051000206A401C2062281EA5F10105F3DC20465C
:10052000FFF7BEFE2078000602D50220BDE8F08766
:100530000120FBE770472DE9FF4F0C461E464FF0A8
:10054000FF378BB0D2E90001DDF860800A908A465F
:10055000C1F30A5505B93D46002108464FF0000099
:10056000BAF1000F00F4400005DA00EB80004FF410
:10057000400101EA50004FEA9059B9F1010F00DD46
:10058000B9460A9850EA4A000ED044F61050A5F237
:10059000FF3545432F14B8F1000F1ED07542291EB8
:1005A0001EDDC9F100021CE0B8F1010F4FF00000A0
:1005B00001D0302103E0F24305E02154401CB04259
:1005C000FBDB30460022002121540B99C1F8088042
:1005D000C1E900200FB0BDE8F08FBD1B6D1CDEE748
:1005E0004A4600DA694206A800F084FA06AB93E8AE
:1005F000070003AB83E8070050460A9900F062FB4E
:100600008DE80700A0F500501F3800900398002DDA
:100610000ADD42F21F014A460844002303A9039061
:10062000684600F0CBFD09E0A0F500504A461F38AF
:10063000002303A90390684600F0D5FD8DE807006C
:100640000004000C03D04FF0FF30410800E01046DA
:10065000B8F1000F03D00022009215461EE0751E6F
:1006600005D400F0C1F9303262556D1EF9D5B3469C
:100670000122084302D000227F1C04E020783028A9
:1006800001D100227F1E002A099784D01DE0112D80
:1006900007DA00F0A9F9303262556D1C50EA010208
:1006A000F5D1084302D00098C8B10EE00021681EC1
:1006B00005E0235C625C63542254401E491C814265
:1006C000F7DBAB46A81B401E0990002004F80B0086
:1006D0000B98099AC0F80880C0E9002B7AE7112628
:1006E0004FF0000857E72DE9F04F88460446D21D29
:1006F00022F0070191B0D1E90001CDE90A0103F030
:1007000024F902460B98C00F01D02D2007E0206885
:10071000810701D52B2002E0202101EAC000032A35
:10072000099001D0072A05DB03464146204600F028
:10073000A1F90BE12078800601D5E06900E00620F0
:10074000B8F1650F814606D0B8F1660F18D0B8F140
:10075000670F70D131E00020B9F1110F009001DB7B
:10076000112301E009F101030AAA01A90CA8FFF76E
:10077000E2FEDDE90C70002609F10105834647E041
:1007800001204B4600904FF000470AAA01A90CA88F
:10079000FFF7D1FEDDE90DB00C995D46002610B9DA
:1007A00009F101000D18B9EB050003D4C0F1FF36C3
:1007B00009F10105A5EB09002BE0B9F1010F01DA00
:1007C0004FF001090020B9F1110F0090484601DDFA
:1007D000112300E003460AAA01A90CA8FFF7ABFE0B
:1007E000DDE90C704D4600268346207800070AD4C8
:1007F000AB4500DA5D4601A8012D04DD411911F871
:10080000011C302907D04F4502DA17F1040F04DA32
:10081000012082460FE06D1EEEE7002F02DCED1B8B
:100820003E4403E0781CA84200DD7D1CB81B00F1AB
:10083000010A4FF000472078000703D4AA4501DBE6
:100840004FF0FF3A0021B7F1004F0DF143088DF84A
:10085000431024D002202B23002F01DA7F422D23C6
:100860000A21021EA0F1010000DC5FB197FBF1FC40
:1008700097FBF1F201FB1C7C17460CF1300C08F8D9
:1008800001CDEEE7A8F1010003702188090501D52B
:10089000452100E06521A0F1010800F8011C09983C
:1008A0000FA9A1EB0807FF1D00B10120411901EBC1
:1008B000EA70A1693844081A401EA0612078C00679
:1008C00002D42046FFF7D6FC099828B1D4E90121CB
:1008D0009047206A401C20622078C00622D520461E
:1008E000FFF7C8FC1EE0002E04DBB34502DD01A8C3
:1008F000805D00E03020D4E901219047206A401C4F
:100900002062761CAAF101005FEA000A0AD100F019
:1009100067F8C0680168405CD4E901219047206A0B
:10092000401C2062281EA5F10105DCDC07E0D4E9AB
:10093000012118F8010B9047206A401C2062381EE4
:10094000A7F10107F3DC2046FFF7AAFC032011B052
:1009500041E6000001694A1C02610878704700B551
:100960008FB0CDE901310021059105497944CDE9E8
:10097000031011466846FFF7F9FC0FB000BD0000F8
:10098000E5FFFFFF0A6802F8010B0A60704710B527
:10099000436913B1AFF3008001E0FFF792FC01203F
:1009A00010BD127800F124010A7000224A70012261
:1009B000EDE711684FF0FF32E9E70000074B70B533
:1009C0000D467B44FFF7CBFF0446284600F004F9B0
:1009D00010B14FF0FF3070BD204670BD9B3000005D
:1009E000004870475001002030B5B0F10A024FEACC
:1009F000900E71F100034EEA817EB0EB0E0061EBC8
:100A000091014FEA101E4EEA017E10EB0E0041EB01
:100A100011114FEA102E4EEA016E10EB0E0041EB61
:100A200011214FEA104E4EEA014E10EB0E0041EB41
:100A30001141401841F100014FEAD00040EA4170F5
:100A40004FEAD10110EB80054FEA810444EA90742B
:100A500044EB01046D1944EB0404521BA3414FF015
:100A6000000348BF0A3200D530BD401C41F10001EF
:100A700030BD00002DE9F0411F4604460326016801
:100A8000072A01F4006004DB08B116A505E016A5ED
:100A900003E008B115A500E015A521F010002060C5
:100AA000A069C01EA0610FB1401EA0612046FFF7E3
:100AB000E1FB4FB1D4E9012138469047206A401C40
:100AC0002062C01C206206E0206AFAE7D4E9012116
:100AD00015F8010B9047761EF8D22046FFF7E0FB91
:100AE000BDE8F0814E414E006E616E00494E4600F9
:100AF000696E66002DE9F047814616468AB0354892
:100B000078440DC88DE80D0032487844801C03AC51
:100B10000DC884E80D0041F69B300844372190FB56
:100B2000F1F290FBF1F5A5F1800501FB12041B3CED
:100B300002D56442012000E00020DFF898A0804642
:100B40000027FA44AAF1BE0A0EE0E0070AD03246B6
:100B5000684607EB470101230AEB810100F043FBE4
:100B60008DE8070064107F1C002CEED1194F7F44E4
:100B7000AE3F19E0E80715D007EB04100DF1180A95
:100B800090E80E008AE80E00C068F04201D1981982
:100B900008903246012306A903A800F024FB03AB0A
:100BA00083E807006D10641C002DE3D14FF00103B2
:100BB00032466946B8F1000F03A802D000F0FEFAF1
:100BC00001E000F010FBC9E90001C9F808200AB0F3
:100BD000BDE8F08768570000007B00F08000704798
:100BE00000487047300100207546FFF7F9FFAE4618
:100BF00005006946534620F00700854618B020B529
:100C0000FFF704FBBDE820404FF000064FF000075F
:100C10004FF000084FF0000B21F00701AC46ACE8A4
:100C2000C009ACE8C009ACE8C009ACE8C0098D4611
:100C3000704710B50446AFF300802046BDE8104071
:100C4000FFF7D0BA4FF0013C50F8042B51F8043BA9
:100C50009A4221D1A2EB0C03934313EACC1317D190
:100C600050F8042B51F8043B9A4215D1A2EB0C0327
:100C7000934313EACC130BD150F8042B51F8043BE7
:100C80009A4209D1A2EB0C03934313EACC13DBD0B5
:100C90004FF00000704700BFD01A01BAB1FA81F1DD
:100CA00001F0180122FA01F0CB40C1F12001DBB2C2
:100CB000C0B2C01A2CFA01F3D11A914311EAC31140
:100CC000E6D170475FEA400C08BF91F0000F4FEA91
:100CD0008C234FEAC12243EA51514FEA1C5018BFFE
:100CE00000F5F0404FEA300018BF41F000415FEAE4
:100CF0006C5C00F02980BCF1FF3F08BF40F08040F1
:100D00007047130C06BF12044FF0100C4FF0000C8C
:100D1000130E04BF12020CF1080C130F04BF1201D2
:100D20000CF1040C930F04BF92000CF1020CD30FD2
:100D300004BF52000CF1010C11464FF00002A0F16B
:100D40001F00A0EB0C00704711F0004F08BF704768
:100D500031F000413FF4D5AF0B0C06BF09044FF052
:100D6000100C4FF0000C0B0E04BF09020CF1080C24
:100D70000B0F04BF09010CF1040C8B0F04BF890099
:100D80000CF1020CCB0F04BF49000CF1010CCCF1AB
:100D90002003A0EB0C0022FA03F302FA0CF241EA62
:100DA000030100F10100704720F07F4C80EA03004E
:100DB00023F07F47ACEB070303F57C5300F00040C2
:100DC00003F1FF032DE980494FEA154B09B44FEABF
:100DD000144325EA0B4E24EA03480FF2042606EBDF
:100DE000132749083E785FEA320203FB0667C7F51E
:100DF000000707FB06F64FEA54374FEAD64606F1DE
:100E0000020607FB066CCCF1005C4FEA1C472CEA9B
:100E1000074C07FB06F40CFB06F504EB15464FEAFE
:100E2000961634BF00204FF000404FEAD13706FB42
:100E300007FC4FEA1C4C0CFB0BF7D21B03FB0CF717
:100E400061EB07010CFB0EF7B0EB074072EB1742AA
:100E50000CFB08F734BFA2EB0742B2EB074261EB91
:100E600017414FEA0C444FEA910706FB07FC4FEA93
:100E70001C4C0CFB0BF7B0EBC74072EB573203FB7B
:100E80000CF734BFA2EBC742B2EBC74261EB57315C
:100E90000CFB0EF7B0EBC70072EB57720CFB08F7B8
:100EA00034BFA2EBC702B2EBC70261EB5771039FDD
:100EB0004FEA816141EA921104EBCC044FEAD13749
:100EC0004FEA826206FB07FC42EA90124FEA80601A
:100ED0004FEA1C4C0CFB0BF7D21B03FB0CF761EB2E
:100EE00007010CFB0EF7B0EB074072EB17420CFB4F
:100EF00008F734BFA2EB0742B2EB074261EB1741A0
:100F00004FEA8C554FEA910704EB9C2406FB07FC43
:100F10004FEA1C4C0CFB0BF7B0EBC74072EB57329F
:100F200003FB0CF734BFA2EBC742B2EBC74261EB45
:100F300057310CFB0EF7B0EBC70072EB57720CFB8E
:100F400008F734BFA2EBC702B2EBC70261EB5771DF
:100F500015EB4C254FEA816141EA92114FEA82621A
:100F60004FEAD13742EA901206FB07FC44F1000435
:100F70004FEA80604FEA1C4C0CFB0BF7D21B03FBC3
:100F80000CF761EB07010CFB0EF7B0EB074072EBBF
:100F900017420CFB08F734BFA2EB0742B2EB074243
:100FA00061EB174115EB1C154FEA813141EA924183
:100FB0004FEA823242EA90424FEA80304FEA0C76A2
:100FC00044F1000448EA03434EEA0B484FF0000E98
:100FD000B2EB080C71EB030724BF624639464EEBB7
:100FE0000E0E4FF0000B0018524149414BEB0B0B1A
:100FF000B2EB080C71EB03077BF1000B24BF6246D8
:1010000039464EEB0E0E4FF0000B0018524149418D
:101010004BEB0B0BB2EB080C71EB03077BF1000BF6
:1010200024BF624639464EEB0E0E51EA020718BF46
:1010300046F0010616EB0E7655F1000254F1000160
:1010400003D5BDE88901BDE80088BDE88901BDE898
:101050000048B619524141EB0101A3F10103704769
:1010600080807F7E7D7C7B7A7978777676757473E5
:10107000727171706F6E6E6D6C6C6B6A6A696868A4
:10108000676666656464636362616160605F5F5E3A
:101090005E5D5D5C5C5B5B5A5A59595858575756B0
:1010A0005655555554545353525252515150505015
:1010B0004F4F4F4E4E4D4D4D4C4C4C4B4B4B4A4A67
:1010C0004A494949484848474747474646464545AB
:1010D00045444444444343434342424242414141E4
:1010E000002B9C4630D477002BD01CB54FEA370735
:1010F00003B44FF010004FF01001BAF1000F06D00A
:10110000BCF1000FDCBF40F0080040F008014FF0D8
:1011100000000FBCBDE810400BF1010BBBF1010F4B
:1011200008BF5FEA170722BF12F1010211F10101A6
:101130004FF0004143F1000300F0004043EA00009B
:101140007047F9D35708D0E746EA064613F1400F37
:101150004FEA16461FDD13F1200FDFBF16430A4684
:10116000002120335B42BED0C3F1200746EA064689
:1011700002FA07F74FEA164646EA0706C3F12007C8
:1011800022FA03F201FA07F721FA03F14FF0000304
:1011900042EA0702A7E746EA020646EA06464FEA9F
:1011A000164646EA0106BCBF46EA0646360C4FF034
:1011B00000034FF000024FF0000194E72DE9804C4E
:1011C0009A46934670B491E8380007C831EA400C5B
:1011D00048BF34EA430C03D5FFF7E6FDFFF780FF75
:1011E000F0BCBDE8008C2DE9804C9A46934670B463
:1011F00091E8380007C810F0804F08BF13F0804F07
:1012000003D100F005F8FFF76BFFF0BCBDE8008CE0
:1012100020F07F4780EA030023F07F4C07EB0C03AC
:10122000A3F57C5300F00040A3F1FE0392F0000F01
:1012300000F0B38095F0000F00F077802DE90149B0
:101240004FEA11404FEA144621EA004800FB06FC31
:1012500024EA064708FB06F607FB08F800FB07F739
:1012600018EB06484CEB164C4FEA124B18EB0748AC
:101270004FEA15464CEB174022EA0B4E0BFB06FCDF
:1012800025EA06470EFB06F607FB0EFE0BFB07F7EB
:101290001EEB064E4CEB164C4FF000061EEB074EB5
:1012A0004CEB174B18EB0B0840F1000018EB0E0B42
:1012B00058EB000840F100008F1A4FF000013CBFCE
:1012C000C943661B14BFB5EB040C00213CBFC943E6
:1012D000F61B4FEA17444EEA8E0E27EA04454FEA02
:1012E0001C4704FB07622CEA074C05FB07F70CFBC5
:1012F00005F604FB0CFC16EB074642EB174216EB17
:101300000C4642EB1C421BEB060658EB0202414125
:1013100046EA9E0601D5BDE80189B619524141EB66
:101320000101A3F10103BDE801894FEA14454FEA29
:10133000114724EA054621EA074C05FB07F406FBA2
:1013400007F70CFB06F105FB0CFC11EB074144EB26
:1013500017444FEA124711EB0C4144EB1C4422EABC
:10136000074C05FB07F206FB07F70CFB06F605FB2F
:101370000CFC16EB074642EB174216EB0C4642EB11
:101380001C456A1854F1000148BF7047B619524114
:1013900041EB0101A3F10103704795F0000F37D035
:1013A0004FEA11424FEA144721EA024624EA074C69
:1013B00002FB07F106FB07F70CFB06F402FB0CFC33
:1013C00014EB074441EB17414FEA154714EB0C446B
:1013D00041EB1C4125EA074C02FB07F506FB07F72A
:1013E0000CFB06F602FB0CFC16EB074645EB17451B
:1013F00016EB0C4645EB1C42121951F1000148BF97
:101400007047B619524141EB0101A3F10103704746
:101410004FEA14454FEA114724EA054621EA074CF2
:1014200005FB07F106FB07F70CFB06F24FF0000681
:1014300005FB0CFC12EB074241EB174112EB0C428F
:1014400051EB1C4148BF7047921841EB0101A3F1D9
:10145000010370471CB51D480178012000F082F897
:10146000012000F03DF804460020102300901748AA
:101470000278C821502001F0E1FD0020102322460F
:10148000DC210090502001F0D9FD0E2210490A20E5
:1014900000F089F80E220F490A2000F051F80C489C
:1014A00010210B46C822CDE90010F021502001F098
:1014B00059FE084810210B46C822CDE900104FF410
:1014C0008271502001F04EFE1CBD0000180000206B
:1014D000190000202700002010B500F02DFB10BDE2
:1014E00070B5044600F09EFBA02000F007FC00F061
:1014F000DFFB012801D1002070BD2546E11704EB78
:1015000011610912A4EB0121C8B200F0F7FB00F051
:10151000CFFB012801D10020EEE700F083FBA120E2
:1015200000F0ECFB00F0C4FB012801D10020E3E750
:10153000012000F011FB064600F098FB3046DBE787
:1015400070B505460C46164606E028466A1C95B25C
:10155000FFF7C6FF04F8010B301EA6F101018EB2A1
:10156000F3D170BD70B504460E4600F05BFBA020C1
:1015700000F0C4FB00F09CFB2546E11704EB116171
:101580000912A4EB0121C8B200F0B8FB00F090FBF7
:10159000304600F0B3FB00F08BFB00F067FB0A2045
:1015A00002F012FA70BD70B505460C46164606E00C
:1015B00021782846FFF7D6FF681C85B2641C301ED0
:1015C000A6F101018EB2F3D170BD00BFFEE77047F6
:1015D0002DE9F041024600250026002000230024CA
:1015E000002791F803C00CF00F0591F803C00CF030
:1015F000100CBCF1000F03D091F802C04CEA0505B5
:1016000091F800C0BCF1000F31D0146800202BE02D
:101610004FF0010C0CFA00F3B1F800C00CEA03061D
:101620009E4220D183004FF00F0C0CFA03F7BC430D
:1016300005FA03FC4CEA040491F803C0BCF1280F3E
:1016400006D14FF0010C0CFA00FCC2F814C00AE0FD
:1016500091F803C0BCF1480F05D14FF0010C0CFA12
:1016600000FCC2F810C0401C0828D1D31460B1F8A7
:1016700000C0BCF1FF0F34DD546800202EE000F103
:10168000080C4FF0010808FA0CF3B1F800C00CEA9E
:1016900003069E4221D183004FF00F0C0CFA03F792
:1016A000BC4305FA03FC4CEA040491F803C0BCF106
:1016B000280F05D100F1080C08FA0CF8C2F81480C4
:1016C00091F803C0BCF1480F07D100F1080C4FF0AE
:1016D000010808FA0CF8C2F81080401C0828CED384
:1016E0005460BDE8F0810000F0B50A4600230024F4
:1016F0000021002500F00046B6F1004F02D11D4E3A
:10170000F16901E01B4E7168C0F3034583B200F438
:101710004016B6F5401F08D121F07061154E76686D
:1017200026F07066134F7E6012E000F48016B6F566
:10173000801F06D1032606FA05F4A14341F070612B
:1017400006E0460D360103FA06F6B14341F070613A
:1017500022B1460D360103FA06F6314300F0004689
:10176000B6F1004F02D1034EF16101E0014E71600C
:10177000F0BD0000000001400246002093680B40CD
:101780000BB1012000E0002070474161704701610A
:101790007047000070B586B0F32000F0E3F80590C4
:1017A000059802F047FE05462A460B4644A0FEF780
:1017B00041FD059802F03EFE05462A460B4649A12A
:1017C00002A8FEF743FD02A948A0FEF733FD4BA097
:1017D000FEF730FD4AA010210B46C822CDE90010CB
:1017E0006421084601F0BEFC02A810210B46C82265
:1017F000CDE900106421A42001F0B4FC059802F0AA
:1018000069FF84B20020102102232246CDE9001096
:1018100096219C2001F0D9FC204602F093FF05465A
:10182000059903F06FF805903849059802F09EFF7E
:101830000590059802F04EFF054600201021022376
:101840002A46CDE900109621B42001F0BEFCF52017
:1018500000F088F80590059802F0ECFD05462A4650
:101860000B462BA0FEF7E6FC059802F033FF84B28E
:101870000020102102232246CDE90010AA219C203D
:1018800001F0A3FC204602F05DFF0546059903F038
:1018900039F805901D49059802F068FF05900598F4
:1018A00002F018FF05468020102102232A46CDE9C8
:1018B0000010AA21B42001F088FC06B070BD000021
:1018C00054686520687475206D6561737572652054
:1018D00074656D70206973203A25342E326643207A
:1018E0000A00000025342E3266000000746573740F
:1018F00020697320257343200A0000000D0A0000B0
:10190000737072696E74663A000000000000C8428D
:1019100054686520687475206D6561737572652003
:1019200068756D69206973203A25342E32665248F5
:10193000200A000000BFFEE710B500F0FDF800F03F
:1019400071F9802000F0DAF900F0B2F9FE2000F021
:10195000D5F900F0ADF900F089F90F2002F034F864
:1019600010BD00002DE9F04788B0044600F05AF998
:10197000802000F0C3F900F09BF9012803D100207A
:1019800008B0BDE8F087204600F0B8F900F090F903
:10199000012801D10020F3E700BF052002F014F870
:1019A00000F040F9812000F0A9F900F081F9012848
:1019B000F3D0002000F0D0F88146052002F004F8B2
:1019C000002000F0C9F88246052001F0FDFF01204B
:1019D00000F0C2F800F04AF90AF0FC0A0AEB09200C
:1019E00002F098FE0490F32C19D1049802F022FD25
:1019F000154A164BCDE9000102F034FB07460022E0
:101A0000134B02F0D7F90546124A134B02F028FC9B
:101A1000CDE9020102F0F4F806900698B0E7F52C43
:101A20000FD10E49049802F0A1FE06464FF08F41F7
:101A300002F08EFD05460A4902F06EFF05900598FA
:101A40009EE700209CE70000D7A3703D0AF76540A1
:101A50000000F040CDCCCCCCCC6C47400000FA422A
:101A60000000C04008B50121102001F0C7FC012191
:101A70000848FFF739FE4FF4C050ADF800000220CF
:101A80008DF8020014208DF8030069460248FFF724
:101A90009FFD08BD000230000010014010B54FF45A
:101AA00080511248FFF771FE042001F0B3FF4FF49C
:101AB00000610E48FFF769FE042001F0ABFF4FF410
:101AC00080510A48FFF763FE042001F0A3FF4FF4A2
:101AD00080510648FFF759FE042001F09BFF4FF4A8
:101AE00000610248FFF753FE10BD000000100140E6
:101AF00010B54FF480510F48FFF747FE042001F066
:101B000089FF4FF400610B48FFF741FE042001F00C
:101B100081FF4FF480510748FFF739FE042001F0A0
:101B200079FF4FF480510348FFF72FFE042001F0A6
:101B300071FF10BD0010014010B5FFF793FF4FF487
:101B400080510448FFF723FE4FF400610148FFF77E
:101B50001EFE10BD0010014070B5054600244FF474
:101B600080511D48FFF711FE042001F053FF4FF490
:101B700000611948FFF70BFE00F030F800261EE068
:101B80004FF480511448FFF702FE042001F042FF99
:101B90006006040E4FF400610F48FFF7EDFD10B131
:101BA00044F0010401E004F0FE044FF480510A48BF
:101BB000FFF7EBFD042001F02DFF701CC6B2082ECC
:101BC000DEDB00F01DF815B1FFF792FF01E0FFF733
:101BD00065FF204670BD00000010014008B54FF4BD
:101BE0000060ADF8000003208DF8020004208DF89D
:101BF000030069460148FFF7EBFC08BD00100140F7
:101C000008B54FF40060ADF8000002208DF8020026
:101C100014208DF8030069460148FFF7D9FC08BD80
:101C20000010014010B54FF480510F48FFF7AFFD91
:101C3000042001F0EFFE4FF400610B48FFF7A7FD11
:101C4000042001F0E7FE4FF400610748FFF79DFD17
:101C5000042001F0DFFE4FF480510348FFF795FDAB
:101C6000042001F0D7FE10BD0010014010B54FF464
:101C700080510E48FFF789FD4FF400610B48FFF7D4
:101C800084FD042001F0C6FE4FF480510748FFF7A1
:101C90007EFD042001F0BEFE4FF400610348FFF713
:101CA00076FD042001F0B6FE10BD000000100140DA
:101CB00010B54FF400611048FFF769FD042001F0F2
:101CC000A9FE4FF480510C48FFF761FD042001F09C
:101CD000A1FE4FF400610848FFF74EFD08B1012452
:101CE00000E000244FF480510348FFF74EFD04202C
:101CF00001F090FE204610BD0010014070B5044672
:101D0000002524E04FF480511648FFF73EFD0420E3
:101D100001F080FE04F0800028B14FF4006111480A
:101D2000FFF735FD04E04FF400610E48FFF72DFD8D
:101D30006006040E042001F06DFE4FF48051094846
:101D4000FFF725FD042001F065FE681CC5B2082DD3
:101D5000D8DB4FF480510348FFF717FD0A2001F04C
:101D600059FE70BD0010014070B5044600261D48A4
:101D70000588408845431B48808846F60401884210
:101D800016D118488079012812D100201549887190
:101D90002A2048812B2088810021084600F070FF0E
:101DA0000120104988712B2048812A20888103E076
:101DB0000021084600F064FF01F08AFA00260DE0D9
:101DC0004FF480700849086140004861074804608A
:101DD00080204861086180000861761CAE42EFD324
:101DE00070BD000058000020001001400C0C0140A4
:101DF00010B50446002C66D16C498871F02008802B
:101E00004FF4A07048800846808849F241318842EA
:101E10000BD06648808846F60401884205D06348A6
:101E2000808845F2103188421AD12C205F49088100
:101E30002A2048812B2088810846808846F60401A4
:101E4000884205D05948808845F21031884206D131
:101E50004FF4A070554908804FF4F0704880A1E01D
:101E60005248808845F21051884210D14FF43050CA
:101E70004E4908814FF4285048814FF42C508881F6
:101E80004FF4F07008804FF4487048808AE047486B
:101E9000808841F6631188420DD12C204349088186
:101EA0002B2048812A2088814FF4F07008804FF45D
:101EB0004870488076E022203C49088120204881F3
:101EC000212088816EE00120384988714FF4A0708C
:101ED0000880F02048800846808849F241318842D5
:101EE00005D03248808845F21031884207D12C2035
:101EF0002E4908812A2048812B2088813FE02B48E9
:101F0000808846F60401884207D12C2027490881A1
:101F10002B2048812A20888131E02448808845F29E
:101F20001051884210D14FF43050204908814FF4AD
:101F3000285048814FF42C5088814FF44870088015
:101F40004FF4F07048801AE01848808841F6631119
:101F500088420DD12C20154908812A2048812B2048
:101F600088814FF4487008804FF4F070488006E094
:101F700022200E49088121204881202088810B4899
:101F8000808846F60401884205D00848808845F2DA
:101F90001031884206D14FF4F070044908804FF4A4
:101FA000A0704880002000F03FFC10BD58000020C9
:101FB00070B504460D461646D348808849F2413133
:101FC000884205D0D048808845F21031884240D1FF
:101FD000CD49488901F06AF94FF48070CB49086116
:101FE000400048612012CA4908608020C749486102
:101FF0000861800008614010086140004861E0B25B
:10200000C34908608020C1494861086180000861B7
:10201000BD49888901F04AF94FF48070BB490861D5
:10202000400048612812BA4908608020B7494861D9
:102030000861800008614010086140004861E8B212
:10204000B34908608020B149486108618000086197
:102050003DE1AD48808845F21051884250D1AA49EF
:10206000488901F023F94FF48070A84908614000C5
:1020700048612012A64908608020A449486108618F
:1020800080000861A0494989491C88B201F00EF915
:102090004FF480709D49086140004861E0B29C495E
:1020A000086080209949486108618000086196496C
:1020B000888901F0FBF84FF4807094490861400072
:1020C000486128129249086080209049486108615F
:1020D000800008618C498989491C88B201F0E6F8C2
:1020E0004FF480708949086140004861E8B288492E
:1020F0000860802085494861086180000861E6E049
:102100008148808841F6631188427DD17E4880797C
:1021100020B97D480088401E001B84B27A49488956
:1021200001F0C4F84FF480707849086140004861BC
:102130002012774908608020744948610861800056
:1021400008614010086140004861E0B270490860D1
:1021500080206E4948610861800008614010086174
:102160004000486120126A49086080206749486140
:102170000861800008614010086140004861E0B2D9
:1021800063490860802061494861086180000861F6
:102190005D49888901F08AF84FF480705B490861D5
:1021A0004000486128125A49086080205749486118
:1021B0000861800008614010086140004861E8B291
:1021C00053490860802051494861086180000861D6
:1021D000401008614000486128124D490860802085
:1021E0004A49486108618000086140100861400068
:1021F0004861E8B246490860802044494861086166
:102200008000086163E0FFE73F48808846F60401EC
:10221000884249D13C488079012804D13A48008855
:10222000401E001B84B23849488901F03FF84FF442
:1022300080703649086140004861201234490860C6
:1022400080203249486108618000086140100861BF
:1022500040004861E0B22E49086080202B49486167
:102260000861800008612849888901F01FF84FF44F
:10227000807026490861400048612812244908609E
:10228000802022494861086180000861401008618F
:1022900040004861E8B21E49086080201B4948613F
:1022A00008618000086112E017488079012804D194
:1022B00015480088401E001B84B2134948892146F6
:1022C00001F00EF810498889294601F009F84FF409
:1022D00080700E494861400048610B4800890C49F4
:1022E0000860802009494861086180000861401049
:1022F0000861400048610648066080204861086126
:102300008000086170BD00005800002000100140EE
:102310000C0C014008B50121192001F06FF80121D2
:10232000FE48FFF7E1F94FF4F860ADF80000102027
:102330008DF8030003208DF802006946F848FFF786
:1023400047F94FF4F861F648FFF721FA4FF6FF70AE
:10235000ADF800006946F348FFF73AF94FF6FF7110
:10236000F048FFF714FA322001F02EFB0121002083
:1023700000F0B6FF322001F027FB002000F04CFAFD
:10238000E949888008468088FF280ADB084680885B
:102390004FF6FF71884204D0E3488088B0F5134FB0
:1023A0007ED1D32000F082FF00F0FEF900F0FCF9AE
:1023B00000F0FAF9DC498880084680884FF6FF7102
:1023C00001EA0020D849888000F0EEF9D6498988D2
:1023D0000843D54988800846808849F241318842BF
:1023E0005ED0BF2000F062FF00F0DEF900F0DCF903
:1023F00000F0DAF900F0D8F9CB49888008468088E7
:102400004FF6FF7101EA0020C749888000F0CCF93F
:10241000C54989880843C44988800846808846F6AB
:102420000401884274D0D42000F040FF00F0BCF9D1
:1024300000F0BAF900F0B8F9BB49888008468088F6
:102440004FF6FF7101EA0020B749888000F0ACF92F
:10245000B54989880843B44988800846808845F290
:102460001031884254D04FF45A4000F01FFF00F062
:102470009BF94FF45B4000F019FF00F095F9AA4971
:102480008880084680884FF6FF7101EA0020A6493F
:1024900088804FF45C4000F009FF00F085F900E00F
:1024A00036E0A149898808439F498880084680888A
:1024B000B0F5004F02D145F2105088809A488088CC
:1024C00045F21051884223D0A12000F0EFFE00F029
:1024D0006BF99549888000F067F993498880084630
:1024E00080884FF6FF7101EA00208F49888000F054
:1024F0005BF98D49898808438B4988800846808824
:1025000045F26171884203D141F6631086498880A3
:102510008548818885A0FDF78DFE8348808849F233
:10252000413188427ED1CF2000F0C0FE002000F073
:10253000ABFEC12000F0A8FE302000F0A5FEED208B
:1025400000F0B4FE642000F09FFE032000F09CFE2B
:10255000122000F099FE812000F096FEE82000F0A5
:10256000A5FE852000F090FE102000F08DFE7A2060
:1025700000F08AFECB2000F099FE392000F084FEA6
:102580002C2000F081FE002000F07EFE342000F0C0
:102590007BFE022000F078FEF72000F087FE20206E
:1025A00000F072FEEA2000F081FE002000F06CFED8
:1025B000002000F069FEC02000F078FE1B2000F033
:1025C00063FEC12000F072FE012000F05DFEC52018
:1025D00000F06CFE302000F057FE302000F054FE7A
:1025E000C72000F063FEB72000F04EFE362000F05A
:1025F0005DFE482000F048FE3A2000F057FE5520CE
:1026000000F042FEB12000F051FE002000F03CFE40
:102610001A2000F039FEB62000F048FE0A2000F033
:1026200033FE00E0A7E0A22000F02EFEF22000F032
:102630003DFE002000F028FE262000F037FE01209D
:1026400000F022FEE02000F031FE0F2000F01CFE22
:102650002A2000F019FE282000F016FE082000F0C5
:1026600013FE0E2000F010FE082000F00DFE542096
:1026700000F00AFEA92000F007FE432000F004FE4F
:102680000A2000F001FE0F2000F0FEFD002000F007
:10269000FBFD002000F0F8FD002000F0F5FD00201B
:1026A00000F0F2FDE12000F001FE002000F0ECFD62
:1026B000152000F0E9FD172000F0E6FD072000F0EE
:1026C000E3FD112000F0E0FD062000F0DDFD2B20F1
:1026D00000F0DAFD562000F0D7FD3C2000F0D4FDDC
:1026E000052000F0D1FD102000F0CEFD0F2000F0FD
:1026F000CBFD3F2000F0C8FD3F2000F0C5FD0F20BE
:1027000000F0C2FD2B2000F0D1FD002000F0BCFD48
:10271000002000F0B9FD012010E0000000023000B0
:1027200000100140000C014058000020204C4344A0
:102730002049443A25780D0A0000000000F0A4FD6D
:102740003F2000F0A1FD2A2000F0B0FD002000F0A5
:102750009BFD002000F098FD002000F095FDEF208B
:1027600000F092FD112000F0A1FD782001F02CF97D
:10277000292000F09BFD0020FFF73AFB01200349D0
:1027800008604FF6FF70FFF7EFFA08BDA80122427C
:1027900010B50246012000E050430B1EA1F10104D8
:1027A000E1B2F9D110BD000010B54FF088301749E3
:1027B0000860091D0860002014490C310860881564
:1027C00013490861400048614020486111488088F1
:1027D00048F68911884202D1022001F01BF90B480A
:1027E0000830006884B2402009490861C0000861CF
:1027F0004FF0333005490860091D08604FF6FF703F
:1028000002490C310860204610BD0000000C014058
:10281000001001405800002010B50446204600F08A
:1028200045FDFFF7C1FF10BDF0B5054600240027A8
:10283000FC48807901280BD1FA48808846F60401CB
:10284000884205D0F748808841F66311884208D154
:10285000F4488079F0B9F348808841F663118842E2
:1028600018D1082D15D2DFE805F00406080A0C0E71
:10287000101206250DE007250BE0042509E00525CB
:1028800007E0012505E0002503E0032501E002251E
:1028900000BF00BFE348808849F24131884217D029
:1028A000E048808846F60401884211D0DD488088DF
:1028B00045F2103188420BD0DA48808845F2105139
:1028C000884205D0D748808841F6631188427DD17F
:1028D000082D1CD2DFE805F00406090C0F121518AC
:1028E00000BF14E044F0800411E044F040040EE026
:1028F00044F0C0040BE044F0200408E044F060041D
:1029000005E044F0A00402E044F0E00400BF00BF92
:10291000C448808845F21051884202D14FF458577C
:1029200000E03627BF48808845F2103188420DD03C
:10293000BC48808845F21051884207D0B948808849
:1029400041F66311884201D044F00804B5488088FC
:1029500046F60401884201D144F00204214638467B
:1029600000F0BEFCAF48808841F6631188421DD05C
:1029700004F0200068B1AB480088AA494988884221
:1029800014DAA84806884088A64908800846468088
:102990000CE0A4480088A3494988884206DDA14884
:1029A000068840889F490880084646809D48808860
:1029B00045F2105188427DD19A49488900F076FC51
:1029C0004FF4807098490861400000E030E14861B0
:1029D0000020964908608020934948610861800082
:1029E000086190494989491C88B200F05FFC4FF4A6
:1029F00080708D4908614000486100208B49086063
:102A000080208949486108618000086185494989B9
:102A1000891C88B200F04AFC4FF48070824908613A
:102A2000400048617F480088401E00127F490860CE
:102A300080207D49486108618000086179494989A1
:102A4000C91C88B200F032FC4FF4807076490861EE
:102A50004000486173480078401EC0B27349086066
:102A60008020714948610861800008616D4988894A
:102A700000F01CFC4FF480706B4908614000486115
:102A800000206A4908608020674948610861800029
:102A9000086164498989491C88B200F007FC4FF439
:102AA0008070614908614000486100205F4908600A
:102AB000802000E035E05C494861086180000861E1
:102AC00058498989891C88B200F0F0FB4FF4807066
:102AD000554908614000486152484088401E001234
:102AE00052490860802050494861086180000861AF
:102AF0004C498989C91C88B200F0D8FB4FF480701A
:102B0000494908614000486146488078401EC0B28B
:102B10004649086080204449486108618000086196
:102B2000ADE04049488900F0C1FB4FF480703E4958
:102B300008614000486100203C49086080203A4913
:102B400048610861800008614010086140004861E8
:102B500000203649086080203349486108618000C0
:102B6000086140100861400048612E480088401EFE
:102B700000122E49086080202B49486108618000BE
:102B80000861401008614000486126480078401EF6
:102B9000C0B226490860802023494861086180004E
:102BA00008612049888900F081FB4FF480701E493C
:102BB00008614000486100201C49086080201A49D3
:102BC0004861086180000861401008614000486168
:102BD0000020164908608020134948610861800080
:102BE000086140100861400048610E484088401E5E
:102BF00000120E49086080200B494861086180007E
:102C00000861401008614000486106488078401E15
:102C1000C0B206490860802003494861086180000D
:102C200008612CE058000020001001400C0C01400D
:102C3000082D1CD2DFE805F004070A0D0F12151845
:102C400044F0300413E044F0100410E044F0200499
:102C50000DE000BF0BE044F0380408E044F0280425
:102C600005E044F0180402E044F0080400BF00BF8F
:102C7000032744F480542146384600F031FBF0BD70
:102C800030B504460D46EA48808849F24131884211
:102C900005D0E748808845F21031884240D1E449A8
:102CA000488900F003FB4FF48070E249086140005E
:102CB00048612012E04908608020DE4948610861CF
:102CC000800008614010086140004861E0B2DA49C4
:102CD00008608020D7494861086180000861D449B4
:102CE000888900F0E3FA4FF48070D249086140000F
:102CF00048612812D04908608020CE4948610861A7
:102D0000800008614010086140004861E8B2CA498B
:102D100008608020C749486108618000086186E139
:102D2000C348808846F60401884249D1C04880796A
:102D3000012804D1BE480088401E001B84B2BC4953
:102D4000488900F0B3FA4FF48070BA490861400036
:102D500048612012B84908608020B649486108617E
:102D6000800008614010086140004861E0B2B2494B
:102D700008608020AF494861086180000861AC4963
:102D8000888900F093FA4FF48070AA4908614000E6
:102D900048612812A84908608020A6494861086156
:102DA000800008614010086140004861E8B2A24913
:102DB000086080209F49486108618000086136E111
:102DC0009B48808841F6631188427DD1984880797C
:102DD00000283FD196480088401E001B84B29449C9
:102DE000488900F063FA4FF480709249086140000E
:102DF000486100209049086080208E494861086140
:102E000080000861401008614000486100208A4944
:102E1000086080208749486108618000086140108F
:102E20000861400048612012834908608020814980
:102E300048610861800008614010086140004861F5
:102E4000E0B27D49086080207A49486108618000CD
:102E5000086141E07649488900F028FA4FF4807013
:102E6000744908614000486120127349086080205D
:102E700070494861086180000861401008614000A5
:102E80004861E0B26C49086080206A494861086185
:102E90008000086140100861400048616448008873
:102EA000401E001264490860802062494861086140
:102EB0008000086140100861400048615C4800786B
:102EC000401EC0B25C4900E047E0086080205949DC
:102ED00048610861800008615549888900F0E6F979
:102EE0004FF48070534908614000486128125249EC
:102EF000086080204F4948610861800008614010E7
:102F0000086140004861E8B24B49086080204949A7
:102F10004861086180000861401008614000486114
:102F200043484088401E00124349086080204149C0
:102F300048610861800008614010086140004861F4
:102F40003B488078401EC0B23B4908608020394928
:102F5000486108618000086169E03548808845F271
:102F60001051884250D13249488900F09FF94FF4FE
:102F70008070304908614000486120122E49086085
:102F800080202C49486108618000086128494989EE
:102F9000491C88B200F08AF94FF480702549086115
:102FA00040004861E0B2244908608020214948611E
:102FB0000861800008611E49888900F077F94FF4A4
:102FC00080701C4908614000486128121A49086055
:102FD0008020184948610861800008611449898986
:102FE000491C88B200F062F94FF480701149086101
:102FF00040004861E8B21049086080200D494861EE
:1030000008618000086112E009488079012804D134
:1030100007480088401E001B84B2054948892146A4
:1030200000F05EF902498889294600F059F930BD5F
:1030300058000020001001400C0C01402DE9F84F11
:1030400080460E4617461C46B3462046E31704EB5F
:103050005373DB1021464FEAE47C04EB5C7C4FEABF
:10306000EC0CA4EBCC0CBCF1000F02D04FF0010C27
:1030700001E04FF0000C6344224604EBD27C4FEA9F
:103080006C0C03FB0CF3DBB20093A7F12000C7B27A
:10309000002556E00C2C07D107EB47002B4901EB2C
:1030A000800010F8059013E0102C05D1284800EBA3
:1030B000071010F805900BE0182C07D107EBC7009C
:1030C000244901EB800010F8059001E0BDE8F88F7D
:1030D0004FF0000A2FE009F0800030B11E4802884E
:1030E00031464046FEF764FF07E00A9828B91B48BE
:1030F000028831464046FEF75BFF4FEA49604FEADF
:103100001069701C86B216484088B04200DCDDE7CA
:10311000A6EB0B00A0420AD15E4608F101001FFA9F
:1031200080F80F480088404500DCCFE706E00AF150
:10313000010000F0FF0ABAF1080FCCDB00BF681CE9
:10314000C5B200988542A5DB00BFBFE7064A00086C
:103150007A4E00086A54000814000020160000206F
:10316000580000202DE9F84704460D469046994640
:10317000DDE9096704F0FF0A08EB04001FFA80F894
:1031800009EB05001FFA80F916E0444502DB5446BE
:10319000A81985B24D4500DB14E0002000903A7874
:1031A000334629462046FFF749FF304606EBD071EB
:1031B00004EB61018CB27F1C38787E2802DC387801
:1031C0002028E2DA00BFBDE8F8872DE9FF4F82B082
:1031D000064692461F46DDE90F4800200190002573
:1031E0004DE0781B401EC1B20A20FFF7D1FABAFBAE
:1031F000F0F00A21B0FBF1F201FB1209019850BB7B
:10320000781EA84227DDB9F1000F22D108F0800016
:1032100078B108F00100A34604EBDB71491001FB13
:103220000561009088B2234630220399FFF706FF1C
:103230000EE008F00100A34604EBDB71491001FB2E
:103240000561009088B2234620220399FFF7F6FE1D
:1032500013E00120019008F00100A34604EBDB71AC
:10326000491001FB0561009088B209F13001CAB232
:1032700023460399FFF7E2FE00BF681CC5B2BD42BA
:10328000AFDB06B0BDE8F08F4FF48071054A1161E5
:103290004900516104490860802151611161890030
:1032A00011617047001001400C0C01404FF4807117
:1032B000054A51614900516104490860802151610A
:1032C0001161890011617047001001400C0C014030
:1032D00000B502490889FFF7E9FF00BD580000204A
:1032E00010B504460B462046FFF7E0FF4FF4807010
:1032F0000549086140004861044803608020486136
:1033000008618000086110BD001001400C0C0140F4
:1033100008B50121242000F071F84FF48070ADF859
:10332000000003208DF8020010208DF8030069468C
:103330000948FEF74DF94FF480710748FEF727FA68
:103340000420ADF8000069460448FEF741F9042165
:103350000248FEF71CFA08BD0008014000140140B5
:1033600000BFFEE77047000070B5002100230F2268
:10337000C47804B3154C246804F4E064C4F5E06434
:10338000210AC1F10403CA40447804FA03F18478A5
:103390001440214309010E4C0678A155047804F02D
:1033A0001F050124AC4005786D11AD0005F1E02545
:1033B000C5F8004109E0047804F01F050124AC4081
:1033C000044D0678761145F8264070BD0CED00E0FE
:1033D00000E400E080E100E07047000029B1064A07
:1033E00012690243044B1A6104E0034A12698243E2
:1033F000014B1A61704700000010024029B1064AD3
:1034000092690243044B9A6104E0034A9269824341
:10341000014B9A61704700000010024029B1064A32
:10342000D2680243044BDA6004E0034AD268824364
:10343000014BDA60704700000010024030B50021F7
:103440000022002400232D4D6D6805F00C0121B1F0
:10345000042905D0082923D105E0294D056022E083
:10346000274D05601FE0254D6D6805F47012234D52
:103470006D6805F48034022505EB92421CB9214D9C
:10348000554305600BE01D4D6D6805F400351DB119
:103490001C4D5543056002E0194D5543056002E09F
:1034A000174D056000BF00BF144D6D6805F0F001B9
:1034B0000909154D6B5C0568DD4045600F4D6D6871
:1034C00005F4E061090A104D6B5C4568DD408560DC
:1034D0000A4D6D6805F46051C90A0B4D6B5C456877
:1034E000DD40C560054D6D6805F44041890B074D11
:1034F0006B5CC568B5FBF3F5056130BD001002409B
:1035000000127A0000093D00000000201000002099
:10351000704710B500F002F810BD00000CB5002097
:10352000019000903348006840F4803031490860D1
:1035300000BF3048006800F4003000900198401C43
:103540000190009818B90198B0F5A06FF1D1294801
:10355000006800F4003010B10120009001E000206C
:1035600000900098012843D12348006840F01000E3
:10357000214908600846006820F0030008600846FA
:10358000006840F0020008601A4840681949486025
:103590000846406848600846406840F480604860DB
:1035A0000846406820F47C1048600846406840F4B3
:1035B000E81048600846006840F08070086000BF6E
:1035C0000C48006800F000700028F9D009484068F5
:1035D00020F00300074948600846406840F00200B8
:1035E000486000BF0348406800F00C000828F9D18B
:1035F0000CBD00000010024000200240042808D149
:103600004FF0E021096941F004014FF0E02211611F
:1036100007E04FF0E021096921F004014FF0E022BA
:10362000116170477047000010B51348006840F002
:1036300001001149086008464068104908400E49D9
:103640004860084600680E4908400B490860084673
:10365000006820F4802008600846406820F4FE00DE
:1036600048604FF41F008860FFF753FF4FF0006081
:103670000449086010BD0000001002400000FFF87F
:10368000FFFFF6FE08ED00E010B540F225511D48A1
:1036900000F098F810B31B4800F050F9C4B21A4873
:1036A000008800F40040C8B91748008800F4804042
:1036B00060B10A2C03D000201349088020E0124892
:1036C000008840F400401049088019E00D2C06D114
:1036D0000D48008840F480400B49088010E00A48FB
:1036E0000088C0F30D0009490C5407480088401CAD
:1036F0000549088008460088C72801DD00200880A9
:1037000010BD00000038014040000020660000208D
:1037100021B1828942F40052828104E082894DF60F
:10372000FF731A408281704710B5044620488442D6
:1037300009D101218803FFF771FE00214FF4804079
:10374000FFF76CFE32E01B48844209D10121480496
:10375000FFF744FE00214FF40030FFF73FFE25E065
:103760001548844209D101218804FFF737FE002162
:103770004FF48020FFF732FE18E01048844209D150
:103780000121C804FFF72AFE00214FF40020FFF7B3
:1037900025FE0BE00A48844208D101210805FFF705
:1037A0001DFE00214FF48010FFF718FE10BD000031
:1037B000003801400044004000480040004C0040F8
:1037C0000050004070B50246002400230025002070
:1037D00040F66A16B14200D100BFC1F3421501F0B4
:1037E0001F03012606FA03F3012D02D19689334007
:1037F00006E0022D02D1168A334001E0968A33405A
:103800000C12012606FA04F41688344013B10CB1E8
:10381000012000E0002070BDF0B503460024002622
:103820000025002040F66A17B94200D100BF1846B3
:10383000C1F3421401F01F06012707FA06F5012C17
:1038400001D10C3004E0022C01D1103000E0143022
:103850001AB107682F43076002E00768AF430760AB
:10386000F0BD00002DE9F04786B005460E46002465
:10387000A24600BFA1460027B08900B100BF2F4675
:103880002C8A4CF6FF700440F08804432C82AC89EB
:103890004EF6F3100440B08831890843718908431B
:1038A0000443AC81AC8A4FF6FF400440B089044326
:1038B000AC8201A8FFF7C2FD1F48874202D1DDF8A4
:1038C00010A001E0DDF80CA0A88900F4004040B190
:1038D0000AEBCA0000EB0A1031684900B0FBF1F8AE
:1038E00007E00AEBCA0000EB0A1031688900B0FB60
:1038F000F1F86420B8FBF0F004012009642101FB19
:103900001089A88900F4004040B1322000EBC900C2
:10391000B0FBF1F000F00700044308E0322000EBB8
:1039200009106421B0FBF1F000F00F0004432C817A
:1039300006B0BDE8F08700000038014001468888E5
:10394000C0F30800704700BFFEE7490050EAC120FD
:1039500018BF04204A0D18BF40F0010040F2FF726A
:10396000B2EB515F08BF40F00200012808BF0520FC
:10397000704730380A2801D2012070470020704774
:1039800000BF704710B56FF00400FFF737FE0A481C
:1039900000680A49B0FBF1F0094908700846007850
:1039A00000EB4001C1EBC0104FF6FF7101EAC0000F
:1039B0000449088010BD00004400002000127A0075
:1039C00036000020380000200146114A12884A4380
:1039D0004FF0E0235A6100229A611A46126942F0C0
:1039E00001021A6100BF4FF0E022106900F00102ED
:1039F0001AB100F48032002AF5D04FF0E0221269AB
:103A000022F001024FF0E0231A6100229A61704710
:103A1000380000200146114A12784A434FF0E02353
:103A20005A6100229A611A46126942F001021A6133
:103A300000BF4FF0E022106900F001021AB100F45B
:103A40008032002AF5D04FF0E022126922F0010204
:103A50004FF0E0231A6100229A617047360000207F
:103A600000BF054A128802F04002002AF9D0C2B213
:103A7000014B1B1D1A807047003801401CB5FFF731
:103A800081FFFFF745FC4FF4165000F04FF8FEF7AA
:103A900041FCFDF751FFFDF71FFD17A010210B465C
:103AA0004FF4FA72CDE9001096213C20FFF75AFB43
:103AB00016A010210B46C822CDE90010AA213C20F7
:103AC000FFF750FB17E01648006808B9012000E036
:103AD000002013490860FDF75DFEFDF7BBFC1148AF
:103AE000D0F8A00108B9012000E000200E490860CC
:103AF000C820FFF769FFE6E74854555F54454D5F1E
:103B000056414C3A30302E30304300004854555F17
:103B100048554D5F56414C3A30302E3030520000FF
:103B20008881224200002142A001214210B586B0C6
:103B30000446012144F20400FFF760FC2348FFF72C
:103B4000F3FD4FF40070ADF8140003208DF816005B
:103B500018208DF8170005A91D48FDF739FD4FF411
:103B60008060ADF8140004208DF8170005A91848EE
:103B7000FDF72EFD25208DF8000003208DF80100B3
:103B80008DF8020001208DF803006846FFF7ECFB7A
:103B900001940020ADF80800ADF80A00ADF80C0063
:103BA000ADF810000C20ADF80E0001A90748FFF792
:103BB00059FE012240F225510448FFF72DFE012154
:103BC0000248FFF7A5FD06B010BD00000038014017
:103BD0000008014010B500290AD00878002807D055
:103BE00005487844FDF72EF8002801D0002010BDCC
:103BF0000248784410BD0000C2260000BA2600002A
:103C000021F00042A2F16052B2F5801F01F00043A2
:103C100028BFD2F17F6C0BD95FEA001C43EAC202D5
:103C200042EB507018BF704728BF20F0010070476A
:103C3000B2F5801FBCBF184670474FEA410C1CF517
:103C4000001F02D2084600F058BE70B500F0B4FA6A
:103C500000000089FFF7F6BF4FF00040A0F580009C
:103C60007047000010B591EA030F48BF83F000438E
:103C700000F1FE82841A71EB030C05D2121943EB9A
:103C80000C03001B61EB0C01DFF824E14FEA115437
:103C9000A4EB135C1EEA430F18BF9EEA445F73D087
:103CA00023EA0E03DCF1200E21EA045143F48013D1
:103CB00032D322FA0CFE10EB0E0023FA0CFE41EB7D
:103CC0000E01CCF1200E03FA0EFE10EB0E0051F1A6
:103CD0000001B1F5801FCCF1200E32D201EB04516E
:103CE00012FA0EF2BDE8104058BF7047401C38BFB2
:103CF0005FEA420218BF7047002814BF20F001009D
:103D000041F100014FEA410313F5001F38BF70472E
:103D1000A1F1C04100F09EBA012A43EB0302ACF1CD
:103D2000200CDCF11F0E32BF4FF0000E23FA0CF313
:103D300010EB030041EB0451B4EB115FD0D0A1EBC9
:103D4000045101F5801149085FEA300001EB04518C
:103D50000ED350F1000038BF12FA0EFE08D1BDE8B4
:103D60001040C9E7401C38BF5FEA4202CAD1C3E72E
:103D7000BDE810404FEA410313F5001F38BF7047FC
:103D8000A1F1C04100F066BA9EEA445F08D011EA92
:103D90005E0FBDE8104004BF01F0004100207047F5
:103DA000BDE8104070B500F007FA00BF64FBBE3EEE
:103DB0000000E0FF2DE9C04130B4DFF8A0C23CEACA
:103DC000111418BF3CEA131400F0EC8081EA0305DB
:103DD0001CEA111444EAD57418BF1CEA131500F04C
:103DE000C780A4EB05044FF0004545EAC12145EA30
:103DF000C32341EA505143EA525304F17F7499427C
:103E000004F500344FEAC0204FEAC22208BF9042B6
:103E100000F09C804FEA13650FF24016765D4FEA82
:103E2000134506FB05F7C7F1807706FB07F74FEA56
:103E3000D737A7FB03687642C8F58038A7FB06CEC4
:103E400038BFA8F1010807FB08E64FF0000EA6FBFB
:103E5000028CE6FB03CEDCF1000CCEF1004E38BF45
:103E6000AEF1010EA6FB0C584FF000074FF0000515
:103E7000E6FB0E87A1FB08C6A0FB07CE16EB0E06DD
:103E800045F10005E1FB076515F1E04E7EBFA4F5A5
:103E900080345FEA46066D4116F1800745F1000562
:103EA0004FEA17274FEA066647EA0567A6F1DE469E
:103EB000B6F1805F4FEA15251FD9384624F0010C72
:103EC00005EBC471BCF1FE6F01EB0C1102D8F0BC24
:103ED000BDE8008124425CBF01F5801E9EEAC47FDC
:103EE00002D4F0BCBDE80081244238D4F0BCA1F17A
:103EF000C041BDE8004100F0ADB94FEAD22242EA2C
:103F000043524FEAD323A7FB02864FEAD02040EA70
:103F1000415007FB03661EEA0E0F4FEAD12105FB55
:103F2000026658BFA6EB0056B6EB00564FEA520E9B
:103F30004EEAC37E18EB0E0E56EB530EBDD518EBB2
:103F400002085E417F1C55F10005B6E74FF480156D
:103F50004FF000074FF000064FF00008ADE7F0BC4F
:103F60004FF0000001F1C04101F00041BDE80081C7
:103F700011EA0C1F0CEA131500D00CE013EA0C1F19
:103F800000F025804FF00000F0BC81EA030101F051
:103F90000041BDE80081F0BCBDE8004181EA0301B9
:103FA00000F058B9F0BCBDE8004170B500F004F96C
:103FB000097EFC3E00F007B881EA03014FF00000E3
:103FC00001F00041704781EA030100F043B9F0BC01
:103FD000BDE800414FF0000021497047FFFDFBF9AB
:103FE000F7F5F4F2F0EEEDEBE9E8E6E4E3E1E0DE2C
:103FF000DDDBDAD8D7D5D4D3D1D0CFCDCCCBCAC89E
:10400000C7C6C5C4C2C1C0BFBEBDBCBBBAB9B8B7C4
:10401000B6B5B4B3B2B1B0AFAEADACABAAA9A8A8B7
:10402000A7A6A5A4A3A3A2A1A09F9F9E9D9C9C9B85
:104030009A99999897979695959493939291919030
:104040008F8F8E8E8D8C8C8B8B8A898988888787C1
:104050008685858484838382828181800000FF0736
:104060000000F87FDFF848C170B51CEA111E1EBFC2
:104070001CEA13159EEA0C0F95EA0C0F00F06F80F6
:1040800081EA030423EA4C134EEAD47E21EA4C1160
:1040900041F4801143F48013AE44A1FB024CA0FB19
:1040A0000365AEF17F7E361955EB0C05A1FB034C81
:1040B0004CF10003A0FB021C16EB0C06654153F10A
:1040C0000003094218BF46F0010613F4007F0BD12C
:1040D0004FEA03314FEA0530340341EA155140EA13
:1040E00016506FF003020AE04FEAC3214FEAC520E1
:1040F000F40241EA555140EA56506FF0020202EBD9
:104100002E4201EB025585EACE710AD05FEA440CDB
:1041100018BF24F0004450F1000041F1000120EAF2
:10412000D47040F2FE7C624500D270BDA84214BF3C
:104130004FF080444FF04044002E08BF0024BEF1F1
:10414000806FA8BFA1F1C041BDE8704080F28280BD
:104150004FF0000001F1C04101F0004170479EEABC
:104160000C0F0CEA131518BF95EA0C0F06D04FF090
:10417000000081EA030E0EF0004170BD00F01CF853
:104180008900013E00F007B800F009B84FEA430C7F
:104190005FEA5C5C08D081EA030100F05BB84FEA9B
:1041A000410C5FEA5C5CF6D14FF0000001497047BA
:1041B0000000FF070000F87F0EF1020E2EF0030E44
:1041C0005EF8046B364205D4012A43EB030515F56E
:1041D000001F12D8012841EB010C1CF5001F0CD860
:1041E0000ED14FEAD17C15F5001F0CEB4C0C0CF1F5
:1041F000020C08BF4CEBD37C04E04FF0080C01E04C
:104200004FEAD37C0CEB4C0526FA05F606F00706C0
:10421000B6F1040C06D20EEB860CBDE870404CF0F3
:10422000010C6047DFE80CF0090B02024FF000417F
:104230004FF00000A1F5002170BD1946104601287D
:1042400051EB010418BFD4F5001484BF002001F025
:10425000004170BD0808A0F500114FEA3101704718
:1042600010B591EA030F48BF83F000433FF502AD5C
:10427000841A71EB030C07D212198CF0004C43EB3B
:104280000C03001B61EB0C01DFF8A4E14FEA1154B1
:10429000A4EB135C1EEA430F18BF9EEA445F00F0D4
:1042A000B08023EA6E03524221EA0451C3EB6E034D
:1042B00038BF5B1EDCF1200E25D322FA0CFE10EB7A
:1042C0000E0043FA0CFE41EB0E01CCF1200E03FA76
:1042D0000EFE10EB0E0051F10001CCF1200E29D49E
:1042E00012FA0EF201EB0451BDE8104058BF7047BE
:1042F000401C1CBFB2F1004F704700280CBF491C86
:1043000020F00100704712EB020E43EB030218BFCE
:104310004FF0010E4EEA4202ACF1200CDCF11E0E11
:1043200054D943FA0CFE10EB0E0051F1FF31CCF1E1
:104330001E0ED5D50EF1010E12FA0EFE404141EBD4
:10434000010101EB445C5FEA5C5C10D910EBDE70AC
:1043500001EB045138BFBEF1004FBDE8104018BF5B
:10436000704700280CBF491C20F00100704730D274
:104370004FEAD42C11F5001124F400641BD0B1FADB
:1043800081F20B3AA41AA41ED2F12003914030FA14
:1043900003F31943904001EBCC71002C01EB045165
:1043A000BDE81040A8BF704701F1C0414FF00000C8
:1043B00001F000417047B0FA80F310FA03F100D128
:1043C00010BDE41A173C4805C90AE4E701EB0451A3
:1043D00010BD491001EB0451BDE810404FEA300018
:1043E00002E04FF0000170474A0008BF0042F8D0D9
:1043F000B2F5001F28BF704701F000414FF00000E8
:1044000070479EEA445F07D011EA5E0FBDE8104096
:1044100004BF002100207047BDE8104070B5FFF7D1
:10442000CBFE00BF40DFF63E83F0004110467047F0
:104430000000E0FF43004FEAD30C4FEA3C0C43403E
:104440001FBF40070CF1605113F0FE4F70471CF086
:10445000006F03D100200CF0004170470CF00043C6
:1044600043EA507010B540EACC0000F000FA00BFFB
:10447000000000924FEA0001FFF7ECBE4FF0004150
:104480004FF00000A1F500217047000090EA010FF5
:1044900048BF81F0004100F14682421A3CBF801AB9
:1044A00089184FEAD0524FF07F4C1CEA410FA2EB23
:1044B000D15318BF9CEA026F00F03B804FF0004CD4
:1044C0004CEA00204CEA012121FA03FC10EB0C0C11
:1044D0001ED202F1FF325FEA1C2040EBC25038BF0F
:1044E00070471CF07F0F4FEA400C18BFBCF17F4FA4
:1044F00038BF7047C3F12003994008BF20F0010086
:10450000BCF17F4F38BF7047A0F1C04000F0F5B953
:104510004FEA3C00000A40EBC25028BF1CF0FF0FDE
:104520004FEA400CE6D018BFBCF17F4F38BF704750
:10453000EAE79CEA026F05D010EA5C0F08BF00F0C2
:104540000040704710B500F092F900BF64FBBE3E1A
:104550004FF47F0C1CEAD0121EBF1CEAD11392EA62
:104560000C0F93EA0C0F00F0858090EA010F48BF12
:1045700042F4807240F4000C41F400002CF07F41C2
:1045800020F07F4000B58142A2EB03020FF2081C2D
:10459000ACEB504EC0F100009EF800E04FEA4E0E2A
:1045A00000FB0EFC38BF49004FEA2C1C02F5FA0252
:1045B0000CFB0EF34FEACE1E4FEA112C4FEAC1213D
:1045C0000EEB635E42EB22420EFB0CFC4FEA1C53E7
:1045D00000FB03114FEA112C4FEA01310EFB0CFCDA
:1045E0004FEADC4C00FB0C11C14228BF09184CEB10
:1045F00003335DF804EB10EB410143EBC250B2F51D
:104600007C0F38BF704729D512F0F00F1CBF00F1A6
:10461000C04000F000407047008182838485868717
:1046200088898B8C8D8E8F919293959697999A9C71
:104630009D9FA0A2A3A5A7A8AAACAEB0B2B3B5B7E0
:10464000B9BCBEC0C2C5C7C9CCCED1D4D7D9DCDFB6
:10465000E2E6E9ECF0F3F7FAFE0000004FEA400C66
:104660000CF1807CBCF17E4F28BF7047B0F1C04098
:1046700000F043B990EA010F0CEAD11348BF42F4AD
:104680008072624538BF634507D213F47F0F16D09E
:1046900080EA010000F00040704710B500F0E7F834
:1046A000097EFC3E00F005B880EA010000F0004001
:1046B000704780EA010000F0004000F01EB912F4DB
:1046C0007F0F04BF0248704780EA010000F015B96F
:1046D0000000C07FC10DD1F19E0206DB4FEA00232E
:1046E00043F0004323FA02F07047004207D54FEA37
:1046F0004001B1F1FE4F02D24FF00000704710B5FB
:1047000000F0B5F849922480002070476FEA20003D
:104710007047000010F0004148BF4042B0FA80F3FB
:1047200010FA03F2C3F19D030BD051EAC35101EB20
:104730001220530638BF704700F1010008BF20F077
:1047400001007047B0FA80F310FA03F2C3F19D0341
:104750000AD0D90501EB1220530638BF704700F18B
:10476000010008BF20F00100704700004FF47F0CEB
:104770001CEAD0121EBF1CEAD11392EA0C0F93EA76
:104780000C0F00F0478090EA010F48BF42F480729E
:104790004FF0004C4CEA00204CEA012102EB0302EE
:1047A000A0FB0113A2F50002002918BF43F001038A
:1047B0005B0028BF4FEA330342EB22425FEA132C2F
:1047C0004CEBC2502EBFBCEB436FB2F57C0F704771
:1047D0004FEA036CBCF1004F08BF20F00100B2F5B6
:1047E0007C0F38BF70470BD582F0FF0212F5803F77
:1047F000C8BF704700F1C040D8BF00F0004070470C
:1048000000F5000C5FEA4C0C48BF7047B0F1C040A7
:1048100000F073B890EA010F0CEAD11348BF42F4DC
:104820008072624538BF634504D280EA010000F01F
:104830000040704710B500F01AF800BF8900013E33
:1048400000F007B800F009B85FEA410C5FEA1C6CA1
:1048500008D080EA010000F050B85FEA400C5FEA3F
:104860001C6CF6D14FF00040A0F5800070470EF1AF
:10487000020E2EF0030E5EF8044B244204D44FEADD
:104880004102B2F17F4F11D84FEA4003B3F17F4F9D
:104890000CD80ED14FEAD07CB2F17F4F0CEB4C0C10
:1048A0000CF1020C08BF4CEBD17C04E04FF0080C7B
:1048B00001E04FEAD17C0CEB4C0324FA03F404F042
:1048C0000704B4F1040C06D20EEB840CBDE81040D2
:1048D0004CF0010C6047DFE80CF0070802024FF0D3
:1048E0000040A0F5800010BD0846420018BFD2F17C
:1048F000807288BF00F0004010BDFF2141EAD05017
:10490000C005704780F0004090EA010F7FF5C5AD0B
:1049100081F0004100F007B890EA010F48BF81F034
:1049200000413FF5BAAD421A04D882F00042A0EB34
:10493000020011444FEAD0524FF07F4C1CEA410F65
:10494000A2EBD15318BF9CEA026F4AD04FF0004C43
:104950004CEA00204CEA012121FA03FCB0EB0C0CDC
:104960000FD412F0FE0F36D05FEA4C001DD50012B6
:1049700040EBC25038BF70471CF03F0F18BF704764
:104980000BE0A2F101025FEA1C2040EBC25038BFED
:1049900070471CF07F0F18BF7047C3F12003994088
:1049A00014BF401E20F00100704780084FEA122318
:1049B00008BF7047B0FA80FCA2EB0C02CCF1280CC7
:1049C00060FA0CF093EA122F04BF00EBC25070475C
:1049D0004FEAC3707047130A5FEADC1008BF7047E4
:1049E000F6E79CEA026F04D010EA5C0F08BF0020D3
:1049F000704710B5FFF73BFF40DFF63E81F0004007
:104A00007047FBF770BE00000000000000000000CF
:104A10000000000000003F40000000000000000017
:104A20003000400030004000000009000BC03D0095
:104A30000BC03D00090018C024407FE022403180B7
:104A40000000180024C01B000D803240018003804C
:104A50001C4027401C800740004010006000000000
:104A60000000000000000000000000001F80204047
:104A700040200000402020401F800000000009006E
:104A800006001F80060009000000040004003F80AB
:104A9000040004000000001000600000000000009E
:104AA00000000400040004000400040000000000F2
:104AB00000400000000000000000002001C00600CF
:104AC0003800400000001F802040204020401F8010
:104AD0000000000010403FC000400000000018C06F
:104AE00021402240244018400000108020402440F3
:104AF00024401B80000002000D0011003FC0014057
:104B000000003C80244024402440238000001F807B
:104B1000244024403440038000003000200027C09F
:104B20003800200000001B802440244024401B80CB
:104B300000001C0022C0224022401F800000000014
:104B400000000840000000000000000000000460B9
:104B5000000000000000000004000A001100208096
:104B60004040090009000900090009000000000098
:104B70004040208011000A0004001800200023405B
:104B80002400180000001F802040274029401F40BB
:104B90000000004007C039000F0001C00040204065
:104BA0003FC0244024401B8000001F802040204044
:104BB00020403080000020403FC0204020401F8027
:104BC000000020403FC024402E4030C00000204064
:104BD0003FC024402E00300000000F001080204015
:104BE00022403380020020403FC0040004003FC048
:104BF0002040204020403FC0204020400000006076
:104C0000202020203FC02000200020403FC0244022
:104C10000B0030C0204020403FC0204000400040FA
:104C200000C03FC03C0003C03C003FC0000020402B
:104C30003FC00C4023003FC020001F802040204088
:104C400020401F80000020403FC024402400180066
:104C500000001F802140214020E01FA000002040D4
:104C60003FC02440260019C0004018C02440244002
:104C7000224031800000300020403FC02040300002
:104C8000000020003F80004000403F8020002000C6
:104C90003E0001C0070038002000380007C03C007B
:104CA00007C038000000204039C0060039C020404D
:104CB00000002000384007C038402000000030408D
:104CC00021C02640384020C00000000000007FE0E6
:104CD000402040200000000070000C0003800040D5
:104CE00000000000402040207FE0000000000000A5
:104CF0002000400020000000000000100010001004
:104D00000010001000100000000040000000000033
:104D10000000000002800540054003C00040200064
:104D20003FC00440044003800000000003800440B2
:104D300004400640000000000380044024403FC0BF
:104D400000400000038005400540034000000000D3
:104D500004401FC0244024402000000002E0055011
:104D600005500650042020403FC00440040003C00A
:104D700000400000044027C0004000000000001078
:104D80000010041027E00000000020403FC0014058
:104D9000070004C00440204020403FC000400040C5
:104DA000000007C0040007C0040003C00000044066
:104DB00007C00440040003C000400000038004401A
:104DC000044003800000041007F0045004400380F6
:104DD0000000000003800440045007F0001004406D
:104DE00007C0024004000400000000000640054027
:104DF000054004C00000000004001F800440004083
:104E00000000040007800040044007C00040040088
:104E1000070004C0018006000400060001C007006E
:104E200001C006000000044006C0010006C00440A6
:104E300000000410071004E00180060004000000D8
:104E4000044005C0064004400000000000000400CB
:104E50007BE040200000000000000000FFF00000A8
:104E60000000000040207BE0040000000000400043
:104E700080004000200020004000000000000000F2
:104E80000000000000000000000000000000000022
:104E90001FCC000C000000000000000008003000E3
:104EA00060000800300060000000022003FC1E20AB
:104EB000022003FC1E200220000000000E18110436
:104EC0003FFF10840C78000000000F0010840F38A2
:104ED00000C0077818840078000000780F8410C4A0
:104EE00011240E9800E40084000808006800700097
:104EF00000000000000000000000000000000000B2
:104F000007E01818200440020000000040022004BE
:104F1000181807E000000000000002400240018075
:104F20000FF00180024002400000008000800080FD
:104F30000FF800800080008000000001000D000ECE
:104F40000000000000000000000000000080008061
:104F5000008000800080008000800000000C000CB9
:104F60000000000000000000000000000006001823
:104F700000600180060018002000000007F008080B
:104F800010041004080807F00000000008040804DA
:104F90001FFC000400040000000000000E0C1014B0
:104FA0001024104411840E0C000000000C18100492
:104FB0001104110412880C700000000000E00320AE
:104FC000042408241FFC0024000000001F98108403
:104FD00011041104108810700000000007F0088808
:104FE0001104110418880070000000001C0010005B
:104FF00010FC13001C001000000000000E381144CB
:105000001084108411440E38000000000700088C42
:1050100010441044088807F0000000000000000061
:10502000030C030C00000000000000000000000161
:1050300001060000000000000000000000800140A8
:1050400002200410080810040000022002200220A0
:1050500002200220022002200000000010040808A4
:105060000410022001400080000000000E00120029
:10507000100C106C10800F00000003E00C1813E4FB
:10508000142417C4082807D000000004003C03C4FF
:105090001C40074000E4001C000410041FFC110425
:1050A000110411040E880070000003E00C181004B5
:1050B0001004100410081C10000010041FFC100441
:1050C00010041004080807F0000010041FFC11046D
:1050D000110417C410040818000010041FFC110468
:1050E000110017C010000800000003E00C181004A5
:1050F000100410441C780040000010041FFC1084B1
:105100000080008010841FFC1004000010041004B4
:105110001FFC100410040000000000030001100137
:1051200010011FFE10001000000010041FFC1104ED
:1051300003801464181C1004000010041FFC1004E9
:10514000000400040004000C000010041FFC1F00F9
:1051500000FC1F001FFC1004000010041FFC0C04C6
:10516000030000E010181FFC100007F008081004EE
:1051700010041004080807F0000010041FFC10843D
:105180001080108010800F00000007F00818102415
:105190001024101C080A07F2000010041FFC110460
:1051A000110011C011300E0C000400000E1C11047F
:1051B0001084108410441C380000180010001004E3
:1051C0001FFC100410001800000010001FF810044D
:1051D0000004000410041FF8100010001E0011E06D
:1051E000001C007013801C0010001FC0103C00E069
:1051F0001F0000E0103C1FC000001004180C163403
:1052000001C001C01634180C100410001C00130457
:1052100000FC13041C00100000000804101C1064A3
:10522000108413041C04101800000000000000008B
:105230007FFE4002400240020000000030000C00EF
:1052400003800060001C00030000000040024002D8
:1052500040027FFE0000000000000000000020006F
:10526000400040004000200000000001000100015B
:1052700000010001000100010001000040004000A9
:105280002000000000000000000000000098012441
:1052900001440144014400FC000410001FFC00888C
:1052A0000104010400880070000000000070008804
:1052B000010401040104008800000000007000885F
:1052C0000104010411081FFC0004000000F801445F
:1052D00001440144014400C800000000010401042D
:1052E0000FFC1104110411001800000000D6012960
:1052F0000129012901C90106000010041FFC0084D6
:1053000001000100010400FC000400000104190474
:1053100019FC00040004000000000000000300016C
:105320000101190119FE0000000010041FFC0024F7
:10533000004001B4010C010400000000100410043E
:105340001FFC0004000400000000010401FC010433
:10535000010001FC0104010000FC010401FC0084C7
:1053600001000100010400FC0004000000F8010439
:1053700001040104010400F80000010101FF00859F
:105380000104010400880070000000000070008823
:1053900001040104010501FF00010104010401FCF5
:1053A00000840104010001800000000000CC012401
:1053B00001240124012401980000000001000100E3
:1053C00007F80104010400000000010001F80004D6
:1053D00000040004010801FC0004010001800170C8
:1053E000000C001001600180010001F0010C003090
:1053F00001C00030010C01F0010000000104018C2B
:1054000000740170018C010400000101018101712F
:10541000000E001801600180010000000184010CF1
:10542000013401440184010C000000000000000070
:10543000000001003EFC40024002000000000000AD
:105440000000FFFF000000000000000040024002DA
:105450003EFC010000000000000000006000800031
:1054600080004000400020002000000000000000FC
:10547000000000000000000000000000000000002C
:10548000000000000000000000000000000000001C
:10549000000000000000000000000000000F803845
:1054A0000FFE380F803800000000000000000000F0
:1054B00000000000000000000100000600000C00D9
:1054C000003800003100000600000C000038000029
:1054D0003000000000000000000061800067F80755
:1054E000F980006180006180006180006180006758
:1054F000F807F98000618000000000000000000053
:1055000001C0E003E0F00630080418081FFFFE04A5
:105510000E080787F00381E000000000000001F0A2
:1055200000060C00040408060C7001F9C0000E000F
:10553000003BE000EC18070808040C180003E0002A
:1055400000000001E00007F003F818041C0804172D
:105550000807E1D003C0E00023B0003C08002008A9
:1055600000001000000000000001000031000032C7
:1055700000001C000000000000000000000000000F
:10558000000000000000000000000000000000001B
:10559000000000000000000000007F0001FFC007C5
:1055A00080F00C0018100004200002000000000031
:1055B000002000021000040C00180780F001FFC05A
:1055C000007F00000000000000000000000000005C
:1055D0000000000000004200006600006600003C81
:1055E0000000180003FFC0001800003C0000660027
:1055F00000660000420000000000080000080000F3
:10560000080000080000080001FFC00008000008B2
:105610000000080000080000080000000000000171
:1056200000003100003200001C00000000000000FB
:10563000000000000000000000000000000000006A
:105640000000080000080000080000080000080032
:105650000008000008000008000008000008000022
:1056600000000000000000000000380000380000CA
:1056700038000000000000000000000000000000F2
:1056800000000000000000000000000600001C00F8
:105690000070000180000E0000380000C00007000C
:1056A000001C0000300000000000000000007F80AF
:1056B00001FFE003807006001804000804000806DB
:1056C000001803807001FFE0007F800000000000F0
:1056D0000000000001000801000801000803FFF8B5
:1056E00007FFF800000800000800000800000000A4
:1056F000000000000001C03802C0580400980401F6
:1057000018040218040418061C1803F81801E0F81D
:1057100000000000000000000001C0E003C0F00431
:10572000000804080804080806180803F41801E72C
:10573000F00001E000000000000000000000030095
:10574000000D00001100006100008108030108073E
:10575000FFF80FFFF800010800010800000000003A
:10576000000000E007FCD006080806100806100834
:10577000061008061838060FF00607C000000000E3
:105780000000000000003F8001FFE00384300208B9
:1057900018041008041008041008071810030FF06C
:1057A0000007C000000000000000000003C0000768
:1057B00000000600000600F80607F806180006E0DC
:1057C0000007000006000000000000000001E1E00A
:1057D00003F7F0063410041808041808040C080431
:1057E0000C0806161803F3F001C1E00000000000E9
:1057F0000000F80003FC3003063804020804020825
:105800000402080404100308F001FFC0007F000038
:105810000000000000000000000000000000000088
:105820000000703800703800703800000000000080
:105830000000000000000000000000000000000068
:10584000000000000000301A00301C0000000000C2
:105850000000000000000000000000000000000048
:1058600000080000140000220000410000808001B8
:1058700000400200200400100800080000000000A2
:105880000000210000210000210000210000210073
:105890000021000021000021000021000021000063
:1058A00000000000000000000800080400100200D2
:1058B0002001004000808000410000220000140010
:1058C00000080000000000000003C00004C0000445
:1058D0000000080038080F380808380810000C309D
:1058E0000007E00003C000000000000000003F804F
:1058F00000FFE0038070020F1006708804C0880467
:105900008308047F8802C09003012000FE4000004D
:10591000080000180001F8003E0801C2000702005C
:1059200007E20000FE00001FC80001F80000380078
:10593000000804000807FFF807FFF8040808040837
:105940000804080804080806180803F41801E7F01A
:105950000001E0000000000000003F8001FFE003C4
:105960008070020018040008040008040008040005
:10597000100600200780C000000004000807FFF8A0
:1059800007FFF804000804000804000804001802D7
:10599000001003807001FFE0007F80000000040021
:1059A0000807FFF807FFF8040808040808040808B7
:1059B000040808043E0804000806001801006000FE
:1059C000000004000807FFF807FFF80408080408AF
:1059D00000040800040800043E0006000006000061
:1059E000018000000000000000003F8001FFE00394
:1059F000807006001804000804020804020802036C
:105A0000F00783F000020000020004000807FFF81E
:105A100007FFF8040808000800000800000800005C
:105A2000080004080807FFF807FFF8040008000052
:105A30000000000004000804000804000807FFF844
:105A400007FFF80400080400080400080000000034
:105A50000000000000000006000007000001040034
:105A60000104000104000307FFFE07FFFC0400001F
:105A700004000004000004000807FFF807FFF80412
:105A80000C08001800003E0004C7800503C806008B
:105A9000F804003804001800000804000807FFF8A4
:105AA00007FFF804000800000800000800000800D4
:105AB000000800000800001800006000000004005A
:105AC0000807FFF807800807FC00007FC00003F804
:105AD0000007C000780007800807FFF807FFF804F8
